:100000000C9434000C9446000C9446000C9446006A
:100010000C9446000C9446000C9446000C94460048
:100020000C9446000C9446000C9446000C94460038
:100030000C9446000C9446000C9446000C94460028
:100040000C9446000C9446000C9446000C94460018
:100050000C9446000C9446000C9446000C94460008
:100060000C9450000C94460011241FBECFEFD8E032
:10007000DEBFCDBF21E0A0E0B1E001C01D92A53000
:10008000B207E1F70E948E000C94C4000C940000AB
:10009000880F8093BA0085E48093BC00789408951B
:1000A0001F920F920FB60F9211248F938091B90077
:1000B000887F803611F0883621F485EC8093BC006F
:1000C00027C0803811F58091BB008D3421F485B1B3
:1000D000816085B916C0833521F485B18E7F85B9DD
:1000E00010C08F3471F485B1826085B981E080934E
:1000F000000110920101109202011092030110926E
:10010000040185EC8093BC0003C085EC8093BC00A7
:100110008F910F900FBE0F901F90189584B1836040
:1001200084B988E00E944800809100018823E1F3AF
:100130008FE39CE90197F1F700C000008091010175
:1001400090910201A0910301B09104010A96A11DB2
:10015000B11D8093010190930201A0930301B0931C
:1001600004018091010190910201A0910301B091DD
:10017000040188389341A105B105B0F285B18D7FA6
:0C01800085B910920001D0CFF894FFCF99
:00000001FF
