:100000000C9434000C943E000C943E000C943E0082
:100010000C943E000C943E000C943E000C943E0068
:100020000C943E000C943E000C943E000C943E0058
:100030000C943E000C943E000C943E000C943E0048
:100040000C943E000C943E000C943E000C943E0038
:100050000C943E000C943E000C943E000C943E0028
:100060000C9472000C943E0011241FBECFEFD8E018
:10007000DEBFCDBF0E94CB000C94D1000C940000D9
:1000800085E48093BC008EEA8093BA00789408954A
:1000900040E050E023C095B121E030E0082E02C0DE
:1000A000220F331F0A94E2F7922B95B99FEFE3ECEE
:1000B000F9E09150E040F040E1F700C0000095B158
:1000C0002095292325B92FEF33EC99E021503040BA
:1000D0009040E1F700C000004F5F5F4F46175707A1
:1000E000D4F208951F920F920FB60F9211242F93FE
:1000F0003F934F935F936F937F938F939F93AF93B0
:10010000BF93EF93FF938091B900887F803611F001
:10011000883621F485EC8093BC002CC0803811F027
:10012000803929F58091BB008D3421F485B182603E
:1001300085B919C0833521F485B18D7F85B913C088
:100140008F3421F485B1846085B90DC0833421F4E6
:1001500085B18B7F85B907C0863429F463E070E0F0
:1001600081E00E94480085EC8093BC0003C085ECD0
:100170008093BC00FF91EF91BF91AF919F918F91C0
:100180007F916F915F914F913F912F910F900FBE93
:100190000F901F90189584B1866084B90E9440002A
:0601A000FFCFF894FFCF31
:00000001FF
