:100000000C9434000C943E000C943E000C943E0082
:100010000C943E000C943E000C943E000C943E0068
:100020000C943E000C943E000C943E000C943E0058
:100030000C943E000C943E000C943E000C943E0048
:100040000C943E000C943E000C943E000C943E0038
:100050000C943E000C943E000C943E000C943E0028
:100060000C9448000C943E0011241FBECFEFD8E042
:10007000DEBFCDBF0E9483000C9489000C94000069
:1000800085E48093BC008EEA8093BA00789408954A
:100090001F920F920FB60F9211248F938091B90087
:1000A000887F803611F0883621F485EC8093BC007F
:1000B00024C0803811F08039E9F48091BB008D3480
:1000C00021F485B1826085B911C0833521F485B1F1
:1000D0008D7F85B90BC08F3421F485B1846085B9DB
:1000E00005C0833419F485B18B7F85B985EC809385
:1000F000BC0003C085EC8093BC008F910F900FBEB5
:100100000F901F90189584B1866084B90E944000BA
:06011000FFCFF894FFCFC1
:00000001FF
