S00D0000736C6176652E73726563FC
S11300000C9434000C9451000C9451000C94510045
S11300100C9451000C9451000C9451000C94510018
S11300200C9451000C9451000C9451000C94510008
S11300300C9451000C9451000C9451000C945100F8
S11300400C9451000C9451000C9451000C945100E8
S11300500C9451000C9451000C9451000C945100D8
S11300600C9451000C94510011241FBECFEFD8E022
S1130070DEBFCDBF11E0A0E0B1E0EAE0F3E002C0F2
S113008005900D92A830B107D9F721E0A8E0B1E0BE
S113009001C01D92A930B207E1F70E944F010C94F0
S11300A083010C9400009C0184B1886084B9A0EBA6
S11300B0B0E01C92E1EBF0E010828C9182648C93AE
S11300C0808182608083C901A0E0B0E0880F991F1D
S11300D0AA1FBB1F880F991FAA1FBB1F9C01AD013C
S11300E0220F331F441F551F220F331F441F551F58
S11300F060E074E284EF90E00E946101215020935B
S1130100B30008951092B0001092B10085B1877FBA
S113011085B9089540E050E023C095B121E030E076
S1130120082E02C0220F331F0A94E2F7922B95B9CE
S11301309FEFE3ECF9E09150E040F040E1F700C0BC
S1130140000095B12095292325B92FEF33EC99E0D0
S1130150215030409040E1F700C000004F5F5F4FF6
S113016046175707D4F208950F931F93CF93DF9345
S1130170CDB7DEB728970FB6F894DEBF0FBECDBF5C
S113018065E070E081E00E948A0088E0E0E0F1E050
S1130190DE01119601900D928A95E1F700E010E0DE
S11301A018C0F801EE0FFF1F81E090E08C0F9D1F37
S11301B0E80FF91F808191810E9453009FEF23ED86
S11301C080E3915020408040E1F700C000000F5FC1
S11301D01F4F043011052CF30E94820028960FB69D
S11301E0F894DEBF0FBECDBFDF91CF911F910F9169
S11301F008958091BC0088230CF050C08091B90010
S1130200887F803611F0883621F484EC8093BC001A
S11302100895803811F08039F1F58091BB008D3458
S113022021F485B1826085B932C0833521F485B16A
S11302308D7F85B92CC08F3421F485B1846085B954
S113024026C0833421F485B18B7F85B920C08634E0
S113025031F463E070E081E00E948A0018C08534C4
S113026031F463E070E081E00E948A0010C08035C0
S113027039F485B1846085B981E08093080107C0B1
S1130280883529F41092080185B18B7F85B984ECF7
S11302908093BC00089584EC8093BC00089584B1DD
S11302A0866084B98EEA8093BA0084E48093BC00AB
S11302B00E94F900809108018823D1F30E94B400C0
S11302C0F7CFA1E21A2EAA1BBB1BFD010DC0AA1F6A
S11302D0BB1FEE1FFF1FA217B307E407F50720F0AB
S11302E0A21BB30BE40BF50B661F771F881F991F26
S11302F01A9469F760957095809590959B01AC016F
S10D0300BD01CF010895F894FFCF6A
S10B030AE803200390015802EE
S9030000FC
