S00D0000736C6176652E73726563FC
S11300000C9434000C9449000C9449000C9449005D
S11300100C9449000C9449000C9449000C94490038
S11300200C9449000C9449000C9449000C94490028
S11300300C9449000C9449000C9449000C94490018
S11300400C9449000C9449000C9449000C94490008
S11300500C9449000C9449000C9449000C944900F8
S11300600C94C5000C94490011241FBECFEFD8E0B6
S1130070DEBFCDBF11E0A0E0B1E0E6ECF2E002C0EB
S113008005900D92A230B107D9F70E9436010C9465
S113009061010C94000022E42093B0006093B1004D
S11300A067709C01629FC001639F900D11249C01A5
S11300B0220F331F40E050E060E074E284EF90E0F0
S11300C00E943F0121502093B3008AB188608AB90D
S11300D00895E0EBF0E080818D7380831092B1008D
S11300E08AB1877F8AB9089585E48093BC008EEA3B
S11300F08093BA007894089540E050E023C095B10D
S113010021E030E0082E02C0220F331F0A94E2F7E8
S1130110922B95B99FEFE3ECF9E09150E040F04069
S1130120E1F700C0000095B12095292325B92FEFF0
S113013033EC99E0215030409040E1F700C00000DA
S11301404F5F5F4F46175707D4F2089581E08093BD
S1130150000114C062E086E091E00E944B0062E07E
S113016086E291E00E944B0062E08AE491E00E9402
S11301704B0062E08DE591E00E944B00809100010C
S11301808111E8CF0E94690008951F920F920FB663
S11301900F9211242F933F934F935F936F937F9309
S11301A08F939F93AF93BF93EF93FF938091B90085
S11301B0887F803611F0883621F485EC8093BC006A
S11301C044C0803811F08039E9F58091BB008D344A
S11301D021F485B1826085B931C0833521F485B1BC
S11301E08D7F85B92BC08F3421F485B1846085B9A6
S11301F025C0833421F485B18B7F85B91FC0863433
S113020031F463E070E081E00E947C0017C0853423
S113021031F463E070E081E00E947C000FC08F3411
S113022031F485B1846085B90E94A60007C0883581
S113023029F41092000185B18B7F85B985EC8093F8
S1130240BC0003C085EC8093BC00FF91EF91BF918B
S1130250AF919F918F917F916F915F914F913F915A
S11302602F910F900FBE0F901F90189584B1866048
S113027084B98AB188608AB90E947400FFCFA1E270
S11302801A2EAA1BBB1BFD010DC0AA1FBB1FEE1F0C
S1130290FF1FA217B307E407F50720F0A21BB30B57
S11302A0E40BF50B661F771F881F991F1A9469F7D3
S11302B060957095809590959B01AC01BD01CF012F
S10902C00895F894FFCF3D
S10502C6010031
S9030000FC
