S00E00006D61737465722E737265638A
S1130000E9C0000006C1000004C1000002C10000F4
S113001000C10000FEC00000FCC00000FAC00000E7
S1130020F8C00000F6C00000F4C00000F2C00000F8
S1130030F0C00000EEC00000ECC00000EAC0000008
S1130040E8C00000E6C00000E4C00000E2C0000018
S1130050E0C00000DEC00000DCC00000DAC0000028
S1130060D8C00000D6C00000D4C00000D2C0000038
S1130070D0C00000CEC00000CCC00000CAC0000048
S1130080C8C00000C6C00000C4C00000C2C0000058
S1130090C0C00000BEC00000BCC00000BAC0000068
S11300A0B8C00000B6C00000B4C00000B2C0000078
S11300B0B0C00000AEC00000ACC00000AAC0000088
S11300C0A8C00000A6C00000A4C00000A2C0000098
S11300D0A0C000009EC000009CC000009AC00000A8
S11300E098C000007F018701870187018101870192
S11300F083018501870187018701870187018701C2
S113010087018701870187018701870187018701AB
S1130110870187018701870187018701870187019B
S1130120870187018701870187018701870187018B
S1130130870187018701870187018701870187017B
S1130140870187018701870187018701870187016B
S1130150870187018701870187018701870187015B
S11301608701870177018701870187017901870169
S11301707B017D0187018701870187018701870151
S1130180870187018701870187018701870187012B
S1130190870187018701870187018701870187011B
S11301A0870187016F018701870187017101870139
S11301B07301750187018701870187018701870121
S11301C08701870169018701870187018901870107
S11301D06B016D0111241FBECFEFD1E2DEBFCDBF95
S11301E000E00CBF13E0A0E0B2E0ECE9F7E000E0CF
S11301F00BBF02C007900D92A037B107D9F723E0D7
S1130200A0E7B3E001C01D92A337B207E1F773D1B1
S1130210C3C2F6CE20E09FEE10C090930801E9EF30
S1130220F0E03197F1F700C00000809106018F7073
S11302308F3029F4990F9F5F2F5F243070F3907FE4
S1130240890F089580EF8093070108958FE08093CC
S11302500801809106018F708F30C1F789EF90E01B
S11302600197F1F700C000008FE0809308018091AE
S113027006018F708F3051F708958FE08093080145
S1130280809106018F708F30C1F389EF90E0019760
S1130290F1F700C000008FE080930801809106010F
S11302A08F708F3051F30895D1DF89EF90E001977B
S11302B0F1F700C00000E1DFADDF90E0FC01E7579B
S11302C0F109E837F10518F58827EE58FF4F8F4FED
S11302D028C28AE2089584E3089581E3089580E3BF
S11302E0089588E3089585E3089582E3089583E2F9
S11302F0089589E3089586E3089583E3089584E4E3
S1130300089583E4089582E4089581E408958AE7D2
S1130310089587E3089588E48093B8001092B900A3
S1130320089584E98093BC008FE99FE00197F1F779
S113033000C0000008951092C50087E68093C400B1
S113034088E08093C10086E08093C2000895909174
S1130350C00095FFFCCF8093C6000895CF93DF9330
S1130360EC0102C02196F3DF88818111FBCFDF917C
S1130370CF910895E0DF2FEF89EF90E02150804086
S11303809040E1F700C0000080E092E0E7DFC3DFC7
S11303902FEF89EF90E0215080409040E1F700C0BA
S11303A0000050DF2FEF89EF90E021508040904013
S11303B0E1F700C000000895CF93DF9384EA8093AF
S11303C0BC008091BC008823E4F78091B900887F49
S11303D0883099F083E392E0C1DFC9EBD0E08881F3
S11303E082958F70805DB3DF88818F70805DAFDF11
S11303F080E093E0B3DF80E001C081E0DF91CF9142
S11304000895CF93DF938093BB0084E88093BC006E
S11304108091BC008823E4F7D091B900CD2FC87F28
S1130420C83199F0C83299F087E492E097DF8C2FB5
S113043082958F70805D8BDF8D2F8870805D87DF64
S113044080E093E08BDF80E003C081E001C081E0C5
S1130450DF91CF910895CF93C82F8BE592E07EDF93
S11304608C2F75DF80E093E079DFA6DF882351F1DC
S11304708DE692E073DF8EEAC4DF8823D9F08C2FF7
S1130480C0DF882399F08BE792E068DF85B180684C
S113049085B92FEF81EE94E0215080409040E1F740
S11304A000C0000085B18F7785B907C087E992E065
S11304B055DF03C080EB92E051DF33DF87EC92E03D
S11304C04DDF03C085ED92E049DFCF91089588EEBA
S11304D092E044DF8FE4BFDF2FEF83E294EF2150FB
S11304E080409040E1F700C0000085EF92E036DFE5
S11304F083E4B1CF0895CF93DF93CDB7DEB764978C
S11305000FB6F894DEBF0FBECDBF34DFCDDE882337
S1130510E9F310ED180FE12EF12C44E1BE016F5FF9
S11305207F4FC70106D183E093E018DFCE01019627
S113053015DF80E093E012DF80917203811718F4D5
S113054081E08093710380917203181303C082E0E9
S11305508093710380917203181718F483E08093D9
S113056071038091720390E08E199F099C0122F41B
S113057022273327281B390B2093700381E193E052
S1130580EDDE8091720344E1BE016F5F7F4F90E026
S1130590D0D0CE010196E2DE81E293E0DFDE8091ED
S11305A0700344E1BE016F5F7F4F90E0C2D0CE0183
S11305B00196D4DE80E093E0D1DE80917103823035
S11305C009F44BC0833009F461C0813009F0A2C042
S11305D02FEF89EF90E0215080409040E1F700C078
S11305E0000086E393E0BADE8DE435DF00E010E03E
S11305F021C0809172038F5F8093720382E493E041
S1130600ADDE809172034AE0BE016F5F7F4F90E0E0
S113061090D0CE010196A2DE80E093E09FDE2FEF22
S113062083EC99E0215080409040E1F700C0000045
S11306300F5F1F4F8091700390E008171907CCF2E9
S113064083E509DF44DF2FEF83EC99E021508040FC
S11306509040E1F700C000005DC02FEF89EF90E00B
S1130660215080409040E1F700C0000084E593E011
S113067075DE83E5F0DE2BDF2FEF83EC99E021506C
S113068080409040E1F700C0000044C02FEF89EFA4
S113069090E0215080409040E1F700C0000081E6E6
S11306A093E05CDE8DE4D7DE00E010E021C08091B1
S11306B0720381508093720382E493E04FDE809151
S11306C072034AE0BE016F5F7F4F90E032D0CE01EB
S11306D0019644DE80E093E041DE2FEF83EC99E065
S11306E0215080409040E1F700C000000F5F1F4F91
S11306F08091700390E008171907CCF283E5ABDE14
S1130700E6DE2FEF83EC99E0215080409040E1F742
S113071000C000008FE39CE90197F1F700C00000DE
S1130720F5CEEE0FFF1F881F8BBF0790F691E02DCB
S11307301994BB274A3031F4992322F4BDE29095F1
S113074081959F4F01C0BB27FB015527AA27880F1E
S1130750991FAA1FA41710F0A41B83955051B9F731
S1130760A05DAA3308F0A95DA193009779F7B111B0
S1130770B1931192CB0100C0DC01FC01672F719190
S11307807723E1F7329704C07C916D937083629173
S10F0790AE17BF07C8F30895F894FFCF1C
S113079C456C657661746F72204D6173746572205B
S11307AC50726F6772616D202D204E41534120535E
S11307BC45525449464945442050524F445543549C
S11307CC0D0A005457492073746172742065727257
S11307DC6F723A20307800545749207772697465E7
S11307EC206572726F723A2030780053656E6469BA
S11307FC6E6720636F6D6D616E643A2000545749C7
S113080C20737461727465640D0A00436F6D6D61BD
S113081C6E642073656E742073756363657373669D
S113082C756C6C790D0A004661696C656420746F93
S113083C2073656E6420636F6D6D616E640D0A00C8
S113084C536C617665206E6F7420726573706F6E75
S113085C64696E670D0A005457492073746F707085
S113086C65640D0A005457492073746172742066D0
S113087C61696C65640D0A00446F6F72206F70655A
S113088C6E210D0A00446F6F7220636C6F736521C7
S113089C0D0A0050726573736564206B65793A2098
S11308AC0043757272656E7420666C6F6F723A20B9
S11308BC002C20466C6F6F727320746F20747261FD
S11308CC76656C3A2000476F696E67207570210D50
S11308DC0A004D6F76696E6720746F20666C6F6FBB
S11308EC723A20004E6F20616374696F6E2E0D0A8C
S11308FC00476F696E6720646F776E210D0A0000E4
S9030000FC
