S00E00006D61737465722E737265638A
S1130000E9C0000006C1000004C1000002C10000F4
S113001000C10000FEC00000FCC00000FAC00000E7
S1130020F8C00000F6C00000F4C00000F2C00000F8
S1130030F0C00000EEC00000ECC00000EAC0000008
S1130040E8C00000E6C00000E4C00000E2C0000018
S1130050E0C00000DEC00000DCC00000DAC0000028
S1130060D8C00000D6C00000D4C00000D2C0000038
S1130070D0C00000CEC00000CCC00000CAC0000048
S1130080C8C00000C6C00000C4C00000C2C0000058
S1130090C0C00000BEC00000BCC00000BAC0000068
S11300A0B8C00000B6C00000B4C00000B2C0000078
S11300B0B0C00000AEC00000ACC00000AAC0000088
S11300C0A8C00000A6C00000A4C00000A2C0000098
S11300D0A0C000009EC000009CC000009AC00000A8
S11300E098C000007F018701870187018101870192
S11300F083018501870187018701870187018701C2
S113010087018701870187018701870187018701AB
S1130110870187018701870187018701870187019B
S1130120870187018701870187018701870187018B
S1130130870187018701870187018701870187017B
S1130140870187018701870187018701870187016B
S1130150870187018701870187018701870187015B
S11301608701870177018701870187017901870169
S11301707B017D0187018701870187018701870151
S1130180870187018701870187018701870187012B
S1130190870187018701870187018701870187011B
S11301A0870187016F018701870187017101870139
S11301B07301750187018701870187018701870121
S11301C08701870169018701870187018901870107
S11301D06B016D0111241FBECFEFD1E2DEBFCDBF95
S11301E000E00CBF13E0A0E0B2E0ECEFF0E100E0CF
S11301F00BBF02C007900D92A03DB107D9F723E0D1
S1130200A0EDB3E001C01D92A33DB207E1F72CD3EA
S113021073C7F6CE20E09FEE10C090930801E9EF7B
S1130220F0E03197F1F700C00000809106018F7073
S11302308F3029F4990F9F5F2F5F243070F3907FE4
S1130240890F089580EF8093070108958FE08093CC
S11302500801809106018F708F30C1F789EF90E01B
S11302600197F1F700C000008FE0809308018091AE
S113027006018F708F3051F708958FE08093080145
S1130280809106018F708F30C1F389EF90E0019760
S1130290F1F700C000008FE080930801809106010F
S11302A08F708F3051F30895D1DF89EF90E001977B
S11302B0F1F700C00000E1DFADDF90E0FC01E7579B
S11302C0F109E837F10518F58827EE58FF4F8F4FED
S11302D0FDC38AE2089584E3089581E3089580E3E9
S11302E0089588E3089585E3089582E3089583E2F9
S11302F0089589E3089586E3089583E3089584E4E3
S1130300089583E4089582E4089581E408958AE7D2
S1130310089587E3089585B1806285B9000085B1A9
S11303208F7D85B90895CF93C82F662331F0E2E01D
S1130330F1E080818064808305C0E2E0F1E08081A7
S11303408F7B808385B18F7E85B98DB180628DB9B5
S113035083B3806283BB8DB188608DB9E1E0F1E045
S1130360808188608083E2E0F1E08081877F808300
S11303708EB1877F8EB984B38F7D84BB8EB18F7D20
S11303808EB9CC231CF4808188608083C6FF03C0AF
S11303908EB188608EB9C5FF03C084B3806284BB0C
S11303A0C4FF03C08EB180628EB9B5DFE2E0F1E034
S11303B08081877F80838EB1877F8EB984B38F7D60
S11303C084BB8EB18F7D8EB9C3FF03C080818860EA
S11303D08083C2FF03C08EB188608EB9C1FF03C0A1
S11303E084B3806284BBC0FF03C08EB180628EB9C7
S11303F092DF8EB180628EB984B3806284BB8EB189
S113040088608EB9E2E0F1E0808188608083CF91DA
S11304100895882331F0E2E0F1E0808180648083F4
S113042005C0E2E0F1E080818F7B808385B180614B
S113043085B98DB18F7D8DB983B38F7D83BB8DB12C
S1130440877F8DB9E1E0F1E08081877F808385B18A
S1130450806285B90000659902C080E001C080E136
S113046095998062639980649091000193FD8068FE
S113047095B19F7D95B9000095B1906295B9000042
S11304806599816095998260639984609091000177
S113049093FD886095B19F7D95B9089580E0B9DF9B
S11304A08823E4F300C000C080E0B3CF0895CF9365
S11304B0C82FF4DF60E08C2F36DFCF9108956111EF
S11304C003C08058F4CF08958054F1CF089581E09B
S11304D0EECF0895CF93C82FE1DFCA3041F48034C2
S11304E010F480E401C080E08058E1DF03C061E0E3
S11304F08C2F19DFCF910895CF93DF93FC0102C0B5
S1130500E9DFFE01EF01219680818111F9CFDF91AE
S1130510CF910895CF93C82FE1E0F1E0808180640A
S1130520808384B1806184B984B1806284B98DB1DF
S113053080628DB983B3806283BB8DB188608DB9CD
S11305408081886080838FE99FE00197F1F700C084
S1130550000084B3806284BB8EB180628EB9DBDE1E
S113056081EE94E00197F1F700C00000D4DE95E13C
S11305709A95F1F70000CFDE85E18A95F1F7000046
S11305808EB18F7D8EB9C7DE95E19A95F1F70000A3
S113059088E28DDF88E08BDF9ADF86E088DF8C2FAE
S11305A086DFCF91089588E48093B8001092B90053
S11305B0089584E98093BC008FE99FE00197F1F7E7
S11305C000C0000008951092C50087E68093C4001F
S11305D088E08093C10086E08093C20008959091E2
S11305E0C00095FFFCCF8093C6000895CF93DF939E
S11305F0EC0102C02196F3DF88818111FBCFDF91EA
S1130600CF910895CF93DF9384EA8093BC008091C7
S1130610BC008823E4F78091B900887F883099F082
S113062080E092E0E3DFC9EBD0E0888182958F70AF
S1130630805DD5DF88818F70805DD1DF8AED92E0A7
S1130640D5DF80E001C081E0DF91CF910895CF93A1
S1130650DF938093BB0084E88093BC008091BC004E
S11306608823E4F7D091B900CD2FC87FC83199F021
S1130670C83299F084E192E0B9DF8C2F82958F70B3
S1130680805DADDF8D2F8870805DA9DF8AED92E0FB
S1130690ADDF80E003C081E001C081E0DF91CF9154
S11306A00895CF93C82F88E292E0A0DF8C2F97DFC4
S11306B08AED92E09BDFA6DF882351F18AE392E082
S11306C095DF8EEAC4DF8823D9F08C2FC0DF88231E
S11306D099F088E492E08ADF85B1806885B92FEFCC
S11306E081EE94E0215080409040E1F700C000008A
S11306F085B18F7785B907C084E692E077DF03C0C0
S11307008DE792E073DF55DF84E992E06FDF03C089
S113071082EA92E06BDFCF910895CF93DF93D82FD5
S1130720682F80E0CCDEC0E003C080E2D3DECF5F80
S1130730C031D8F36D2F80E0C2DEDF91CF910895F0
S1130740CF93DF93EC0160E080E0B9DE80E0E5DF89
S1130750CE01D2DEDF91CF91089585EB92E046DFA2
S11307608FE49FDF82EC92E0EBDF2FEF83E294EFE4
S1130770215080409040E1F700C000008FEC92E0EF
S113078035DF83E48EDF8DED92E0DADF2FEF83ED4A
S113079090E3215080409040E1F700C000008CEECF
S11307A092E0CECF08958CE0B5DE91DE8CEE92E03F
S11307B0C7DF2FEF89EF90E0215080409040E1F7B0
S11307C000C0000000DF2FEF89EF90E0215080404F
S11307D09040E1F700C000008DEF92E007DFE3DE18
S11307E02FEF89EF90E0215080409040E1F700C066
S11307F0000028DD2FEF89EF90E0215080409040E9
S1130800E1F700C0000008950F931F93CF93DF9387
S1130810CDB7DEB764970FB6F894DEBF0FBECDBF79
S11308209F938F9380E393E09F938F938E010F5F49
S11308301F4F1F930F9375D161E080E040DE81E08C
S11308406CDFC80159DE0F900F900F900F900F903E
S11308500F9064960FB6F894DEBF0FBECDBFDF9144
S1130860CF911F910F910895CF93DF93CDB7DEB74A
S113087064970FB6F894DEBF0FBECDBF94DF14DDCE
S11308808823E9F310ED180FE12EF12C44E1BE01A9
S11308906F5F7F4FC70122D182E493E0A7DECE01D0
S11308A00196A4DE8AED92E0A1DE8091D203811745
S11308B018F481E08093D1038091D203181303C00C
S11308C082E08093D1038091D203181718F483E057
S11308D08093D1038091D20390E08E199F099C01EB
S11308E022F422273327281B390B2093D00380E5D9
S11308F093E07CDE8091D20344E1BE016F5F7F4FC1
S113090090E0ECD0CE01019671DE80E693E06EDEDD
S11309108091D00344E1BE016F5F7F4F90E0DED051
S1130920CE01019663DE8AED92E060DE8091D10310
S1130930823009F452C0833009F476C0813009F062
S1130940BEC02FEF89EF90E0215080409040E1F746
S113095000C0000085E793E049DE8DE4A2DE81E873
S113096093E0EEDE00E010E025C08091D2038F5FBB
S11309708093D2038AE893E039DE8091D2034AE07F
S1130980BE016F5F7F4F90E0A9D0CE0101962EDEAD
S11309908AED92E02BDE8091D20390E035DF2FEFD9
S11309A089E698E1215080409040E1F700C00000C2
S11309B00F5F1F4F8091D00390E008171907ACF226
S11309C083E56FDECADE2FEF83EC99E0215080408F
S11309D09040E1F700C0000072C02FEF89EF90E073
S11309E0215080409040E1F700C000008CE993E082
S11309F0FDDD8BEA93E0A4DE86E453DE2FEF87E986
S1130A009AE3215080409040E1F700C000008CEE52
S1130A1092E096DE2FEF83EC99E0215080409040E5
S1130A20E1F700C000004BC02FEF89EF90E02150A8
S1130A3080409040E1F700C0000086EB93E0D6DDF3
S1130A408DE42FDE84EC93E07BDE00E010E025C033
S1130A508091D20381508093D2038AE893E0C6DD6B
S1130A608091D2034AE0BE016F5F7F4F90E036D0A1
S1130A70CE010196BBDD8AED92E0B8DD8091D20310
S1130A8090E0C2DE2FEF89E698E12150804090404B
S1130A90E1F700C000000F5F1F4F8091D00390E08A
S1130AA008171907ACF283E5FCDD57DE2FEF83EC62
S1130AB099E0215080409040E1F700C000008FE3AE
S1130AC09CE90197F1F700C00000D9CEEE0FFF1F9B
S1130AD0881F8BBF0790F691E02D1994BB274A30ED
S1130AE031F4992322F4BDE2909581959F4F01C082
S1130AF0BB27FB015527AA27880F991FAA1FA417F4
S1130B0010F0A41B83955051B9F7A05DAA3308F0E7
S1130B10A95DA193009779F7B111B1931192CB011B
S1130B2041C20F931F93CF93DF93CDB7DEB72E97B8
S1130B300FB6F894DEBF0FBECDBF0E891F8986E0C5
S1130B408C831A8309838FEF9FE79E838D83AE0185
S1130B50465E5F4F688D798DCE01019610D0EF818E
S1130B60F885E00FF11F10822E960FB6F894DEBFC1
S1130B700FBECDBFDF91CF911F910F9108952F929A
S1130B803F924F925F926F927F928F929F92AF9219
S1130B90BF92CF92DF92EF92FF920F931F93CF9366
S1130BA0DF93CDB7DEB72B970FB6F894DEBF0FBE39
S1130BB0CDBF6C017B018A01FC01178216828381FF
S1130BC081FFBFC1CE0101963C01F6019381F7017B
S1130BD093FD859193FF81917F01882309F4ADC131
S1130BE0853239F493FD859193FF81917F0185329C
S1130BF021F4B60190E0E6D1E8CF912C212C312CE0
S1130C00FFE1F315D8F08B3279F038F4803279F0C3
S1130C108332A1F4232D20611DC08D3261F0803315
S1130C2069F4232D216016C0832D8260382EE32DB4
S1130C30E4603E2E2AC0F32DF8601DC037FC2DC0A1
S1130C4020ED280F2A3040F08E32B9F436FC75C1FD
S1130C50232D2064322E19C036FE06C08AE0989EE9
S1130C60200D1124922E11C0EAE02E9E200D112495
S1130C70222EF32DF0623F2E08C08C3621F4832DF2
S1130C808068382E02C0883641F4F70193FD8591BF
S1130C9093FF81917F018111B3CF982F9F7D95544C
S1130CA0933028F40C5F1F4F9FE399830DC0833664
S1130CB031F0833771F0833509F055C020C0F80155
S1130CC0808189830E5F1F4F88248394912C530164
S1130CD012C02801F2E04F0E511CF801A080B1802F
S1130CE036FE03C0692D70E002C06FEF7FEFC501CF
S1130CF04ED14C018201F32DFF773F2E15C0280100
S1130D0022E0420E511CF801A080B18036FE03C0DF
S1130D10692D70E002C06FEF7FEFC5012DD14C014A
S1130D20F32DF0683F2E820133FC19C0822D90E030
S1130D3088169906A0F4B60180E290E043D12A9483
S1130D40F5CFF50137FC859137FE81915F01B6013E
S1130D5090E038D121102A9421E0821A910881145C
S1130D60910479F7E1C0843611F0893639F5F80138
S1130D7037FE07C060817181828193810C5F1F4FB0
S1130D8008C060817181072E000C880B990B0E5FDF
S1130D901F4FF32DFF763F2E97FF09C09095809546
S1130DA0709561957F4F8F4F9F4FF0683F2E2AE0DB
S1130DB030E0A30143D1882E861844C0853731F42E
S1130DC0232D2F7EB22E2AE030E025C0932D997F6B
S1130DD0B92E8F36C1F018F4883579F0AEC080375B
S1130DE019F0883721F0A9C0E92FE061BE2EB4FEC6
S1130DF00DC0FB2DF460BF2E09C034FE0AC0292F9C
S1130E002660B22E06C028E030E005C020E130E0C4
S1130E1002C020E132E0F801B7FE07C060817181B1
S1130E20828193810C5F1F4F06C06081718180E0D5
S1130E3090E00E5F1F4FA30101D1882E8618FB2D71
S1130E40FF773F2E36FE0DC0232D2E7FA22E891450
S1130E5058F434FE0BC032FC09C0832D8E7EA82EBC
S1130E6005C0B82CA32C03C0B82C01C0B92CA4FE17
S1130E700FC0FE01E80DF11D8081803321F49A2D0D
S1130E80997EA92E09C0A2FE06C0B394B39404C0EF
S1130E908A2D867809F0B394A3FC10C0A0FE06C086
S1130EA0B21480F4280C922C9B180DC0B21458F480
S1130EB0B60180E290E086D0B394F8CFB21418F46F
S1130EC02B1802C0982C212CA4FE0FC0B60180E37D
S1130ED090E078D0A2FE16C0A1FC03C088E790E0A1
S1130EE002C088E590E0B6010CC08A2D867851F0E6
S1130EF0A1FE02C08BE201C080E2A7FC8DE2B60134
S1130F0090E060D0891430F4B60180E390E05AD0C8
S1130F109A94F8CF8A94F301E80DF11D8081B6010B
S1130F2090E050D08110F6CF222009F44ECEB601C5
S1130F3080E290E047D02A94F7CFF601868197812A
S1130F4002C08FEF9FEF2B960FB6F894DEBF0FBE53
S1130F50CDBFDF91CF911F910F91FF90EF90DF9064
S1130F60CF90BF90AF909F908F907F906F905F9045
S1130F704F903F902F900895FC0105906150704070
S1130F800110D8F7809590958E0F9F1F0895FC014E
S1130F906150704001900110D8F7809590958E0FA4
S1130FA09F1F0895DC01FC01672F71917723E1F7FE
S1130FB0329704C07C916D9370836291AE17BF0722
S1130FC0C8F308950F931F93CF93DF93FB012381FD
S1130FD021FD03C08FEF9FEF2CC022FF16C0468176
S1130FE05781248135814217530744F4A081B1818C
S1130FF09D012F5F3F4F318320838C93268137815E
S11310002F5F3F4F3783268314C08B01EC01FB0114
S11310100084F185E02D1995892BE1F6D801169607
S11310208D919C911797019617969C938E93169782
S1131030CE01DF91CF911F910F910895FA01AA2754
S1131040283051F1203181F1E8946F936E7F6E5F07
S11310507F4F8F4F9F4FAF4FB1E03ED0B4E03CD0B5
S1131060670F781F891F9A1FA11D680F791F8A1F98
S1131070911DA11D6A0F711D811D911DA11D20D0FF
S113108009F468943F912AE0269F11243019305DB9
S11310903193DEF6CF010895462F4770405D4193AA
S11310A0B3E00FD0C9F7F6CF462F4F70405D4A33F7
S11310B018F0495D31FD4052419302D0A9F7EACFBF
S11310C0B4E0A6959795879577956795BA95C9F7EE
S11310D000976105710508959B01AC010A2E0694E1
S11310E05795479537952795BA95C9F7620F731F9A
S10F10F0841F951FA01D0895F894FFCFE5
S11310FC545749207374617274206572726F723A1A
S113110C20307800545749207772697465206572D1
S113111C726F723A2030780053656E64696E672082
S113112C636F6D6D616E643A20005457492073747B
S113113C61727465640D0A00436F6D6D616E642099
S113114C73656E74207375636365737366756C6C09
S113115C790D0A004661696C656420746F207365AF
S113116C6E6420636F6D6D616E640D0A00536C6167
S113117C7665206E6F7420726573706F6E64696E21
S113118C670D0A005457492073746F707065640DB1
S113119C0A00545749207374617274206661696C37
S11311AC65640D0A00446F6F72206F70656E210DBB
S11311BC0A00446F6F72206973206F70656E00446F
S11311CC6F6F7220636C6F7365210D0A00446F6F2F
S11311DC7220697320636C6F7365640043686F6F6E
S11311EC73652074686520666C6F6F7200456C655E
S11311FC7661746F72204D61737465722050726FD6
S113120C6772616D202D204E415341205345525439
S113121C49464945442050524F445543540D0A0005
S113122C43757272656E7420666C6F6F723A20250A
S113123C640050726573736564206B65793A2000A1
S113124C43757272656E7420666C6F6F723A20000F
S113125C2C20466C6F6F727320746F2074726176DD
S113126C656C3A2000476F696E67207570210D0A12
S113127C00476F696E67207570004D6F76696E67F5
S113128C20746F20666C6F6F723A20004661756C27
S113129C742073746174652E0D0A0053616D65209E
S11312AC466C6F6F7200476F696E6720646F776E60
S11312BC210D0A00476F696E6720646F776E00001A
S9030000FC
