:10000000E9C0000007C1000005C10000CDC200002A
:1000100001C10000FFC00000FDC00000FBC00000E7
:10002000F9C00000F7C00000F5C00000F3C00000F8
:10003000F1C00000EFC00000EDC00000EBC0000008
:10004000E9C00000E7C00000E5C00000E3C0000018
:10005000E1C00000DFC00000DDC00000DBC0000028
:10006000D9C00000D7C00000D5C00000D3C0000038
:10007000D1C00000CFC00000CDC00000CBC0000048
:10008000C9C00000C7C00000C5C00000C3C0000058
:10009000C1C00000BFC00000BDC00000BBC0000068
:1000A000B9C00000B7C00000B5C00000B3C0000078
:1000B000B1C00000AFC00000ADC00000ABC0000088
:1000C000A9C00000A7C00000A5C00000A3C0000098
:1000D000A1C000009FC000009DC000009BC00000A8
:1000E00099C000008001880188018801820188018F
:1000F00084018601880188018801880188018801BE
:1001000088018801880188018801880188018801A7
:100110008801880188018801880188018801880197
:100120008801880188018801880188018801880187
:100130008801880188018801880188018801880177
:100140008801880188018801880188018801880167
:100150008801880188018801880188018801880157
:100160008801880178018801880188017A01880165
:100170007C017E018801880188018801880188014D
:100180008801880188018801880188018801880127
:100190008801880188018801880188018801880117
:1001A0008801880170018801880188017201880135
:1001B000740176018801880188018801880188011D
:1001C000880188016A018801880188018A01880103
:1001D0006C016E0111241FBECFEFD1E2DEBFCDBF97
:1001E00000E00CBF15E0A0E0B2E0E8E8F3E100E0D9
:1001F0000BBF02C007900D92A634B107D9F725E0D6
:10020000A6E4B5E001C01D92AD34B207E1F735D4E4
:100210000C94C209F5CE20E09FEE10C09093080127
:10022000E9EFF0E03197F1F700C00000809106019E
:100230008F708F3029F4990F9F5F2F5F243070F3F8
:10024000907F890F089580EF8093070108958FE0D4
:1002500080930801809106018F708F30C1F789EF7C
:1002600090E00197F1F700C000008FE08093080153
:10027000809106018F708F3051F708958FE0809341
:100280000801809106018F708F30C1F389EF90E0F3
:100290000197F1F700C000008FE080930801809182
:1002A00006018F708F3051F30895D1DF89EF90E010
:1002B0000197F1F700C00000E1DFADDF90E0FC0145
:1002C000E757F109E837F10518F58827EE58FF4F91
:1002D0008F4F42C58AE2089584E3089581E308952B
:1002E00080E3089588E3089585E3089582E30895FF
:1002F00083E2089589E3089586E3089583E30895EA
:1003000084E4089583E4089582E4089581E40895DF
:100310008AE7089587E3089585B1806285B9000072
:1003200085B18F7D85B90895CF93C82F662331F0AD
:10033000E2E0F1E080818064808305C0E2E0F1E0EA
:1003400080818F7B808385B18F7E85B98DB18062FE
:100350008DB983B3806283BB8DB188608DB9E1E0D4
:10036000F1E0808188608083E2E0F1E08081877F36
:1003700080838EB1877F8EB984B38F7D84BB8EB12D
:100380008F7D8EB9CC231CF4808188608083C6FF6A
:1003900003C08EB188608EB9C5FF03C084B380628C
:1003A00084BBC4FF03C08EB180628EB9B5DFE2E0CA
:1003B000F1E08081877F80838EB1877F8EB984B39F
:1003C0008F7D84BB8EB18F7D8EB9C3FF03C08081CA
:1003D00088608083C2FF03C08EB188608EB9C1FF80
:1003E00003C084B3806284BBC0FF03C08EB180624F
:1003F0008EB992DF8EB180628EB984B3806284BB85
:100400008EB188608EB9E2E0F1E0808188608083FF
:10041000CF910895882331F0E2E0F1E0808180649B
:10042000808305C0E2E0F1E080818F7B808385B12D
:10043000806185B98DB18F7D8DB983B38F7D83BB8D
:100440008DB1877F8DB9E1E0F1E08081877F808386
:1004500085B1806285B90000659902C080E001C065
:1004600080E195998062639980649091000193FD89
:10047000806895B19F7D95B9000095B1906295B95E
:10048000000065998160959982606399846090917C
:10049000000193FD886095B19F7D95B9089580E036
:1004A000B9DF8823E4F300C000C080E0B3CF089533
:1004B000CF93C82FF4DF60E08C2F36DFCF91089503
:1004C000611103C08058F4CF08958054F1CF08958E
:1004D00081E0EECF0895CF93C82FE1DFCA3041F419
:1004E000803410F480E401C080E08058E1DF03C074
:1004F00061E08C2F19DFCF910895CF93DF93FC013A
:1005000002C0E9DFFE01EF01219680818111F9CF60
:10051000DF91CF910895CF93C82FE1E0F1E0808182
:100520008064808384B1806184B984B1806284B93D
:100530008DB180628DB983B3806283BB8DB18860D9
:100540008DB98081886080838FE99FE00197F1F702
:1005500000C0000084B3806284BB8EB180628EB91B
:10056000DBDE81EE94E00197F1F700C00000D4DEFD
:1005700095E19A95F1F70000CFDE85E18A95F1F7D4
:1005800000008EB18F7D8EB9C7DE95E19A95F1F7A7
:10059000000088E28DDF88E08BDF9ADF86E088DF6D
:1005A0008C2F86DFCF9108951F920F920FB60F9276
:1005B00011248F9380914905882319F081E080935D
:1005C00048058F910F900FBE0F901F901895CF93F5
:1005D000DF93D82F682F80E073DFC0E003C080E294
:1005E0007ADFCF5FC031D8F36D2F80E069DFDF9114
:1005F000CF910895CF93DF93EC0160E080E060DF5E
:1006000080E0E5DFCE0179DFDF91CF9108950F9390
:100610001F93CF93DF93CDB7DEB764970FB6F894EF
:10062000DEBF0FBECDBF9F938F9380E092E09F937C
:100630008F938E010F5F1F4F1F930F93B8D361E00D
:1006400080E03EDF81E0C3DFC80157DF0F900F90ED
:100650000F900F900F900F9064960FB6F894DEBF36
:100660000FBECDBFDF91CF911F910F91089588E408
:100670008093B8001092B900089584E98093BC007B
:100680008FE99FE00197F1F700C0000008951092F4
:10069000C50087E68093C40088E08093C10086E0AF
:1006A0008093C20008959091C00095FFFCCF809385
:1006B000C6000895CF93DF93EC0102C02196F3DFCB
:1006C00088818111FBCFDF91CF9108958CE023DFEA
:1006D000FFDE8EE092E08EDF80E090E098DF2FEF8B
:1006E00089EF90E0215080409040E1F700C0000089
:1006F000CEDF2FEF89EF90E0215080409040E1F76E
:1007000000C000008FE192E0D5DFB1DF2FEF89EF6D
:1007100090E0215080409040E1F700C0000093DD60
:100720002FEF89EF90E0215080409040E1F700C02A
:1007300000008DB384608DBBE9E6F0E080818062CB
:10074000808380818F7E80838AB18B7F8AB98BB1D1
:1007500084608BB978940895CF92DF92EF92FF92E4
:100760000F931F93CF93DF93CDB7DEB7A0970FB64C
:10077000F894DEBF0FBECDBF82E592E09BDF84E13F
:1007800094E098DF8FE692E095DF84E194E092DFD9
:1007900000E0F12CE12C94C088DD2FEF31EE94E0E5
:1007A000215030409040E1F700C0000010ED180FDC
:1007B0001A3008F05AC04AE0BE016F5F7F4F812FA8
:1007C00090E0D2D283E892E075DFCE01019672DF2D
:1007D00081E992E06FDF86E992E06CDF4AE0BE01DA
:1007E0006F5F7F4F8F2D90E0BFD2CE01019662DF09
:1007F00084E194E05FDF22E0F21202C000E0F12C1D
:10080000F11003C0F394012F0AC031E0F31207C0C6
:10081000000F802F880F880F080F010FF3944AE014
:10082000CE0101966C01BC01802F90E09DD282EA3E
:1008300092E040DFC6013EDFDF92CF9282EB92E092
:100840009F938F936E0191E1C90ED11CDF92CF92DD
:10085000AED2C601CFDE84E194E02CDF0F900F9082
:100860000F900F900F900F902BC08A3299F44AE0AE
:10087000BE016F5F7F4F802F90E076D28CEB92E0CD
:1008800019DFCE01019616DF84E194E013DFEE2438
:10089000E39416C04AE0BE016F5F7F4F802F90E067
:1008A00063D288EC92E006DFCE01019603DF84E19B
:1008B00094E000DF86ED92E0FDDE84E194E0FADE74
:1008C000EE2009F469CF802FA0960FB6F894DEBF12
:1008D0000FBECDBFDF91CF911F910F91FF90EF9091
:1008E000DF90CF90089586EF92E0E4DE8FEF0AC0AC
:1008F000DCDC2FEF31EE94E0215030409040E1F706
:1009000000C000008F3FA1F3089584EA8093BC00EB
:100910008091BC008823E4F78091B900887F8830FB
:1009200029F080E293E0C6DE80E0089581E008953A
:100930008093BB0084E88093BC008091BC00882336
:10094000E4F78091B900887F883151F08091B90037
:10095000887F883239F082E393E0ACDE80E008954E
:1009600081E0089581E00895CF93C82F84E493E057
:10097000A1DE8C2F98DE84E194E09CDEC6DF882324
:1009800051F186E593E096DE8EEAD2DF8823D9F036
:100990008C2FCEDF882399F084E693E08BDE85B13F
:1009A000806885B92FEF81EE94E02150804090401F
:1009B000E1F700C0000085B18F7785B907C080E8F6
:1009C00093E078DE03C089E993E074DE56DE80EBC5
:1009D00093E070DE03C08EEB93E06CDECF91089560
:1009E00081ED93E067DE8FE4BFDF8EED93E002DE02
:1009F0002FEF83E294EF215080409040E1F700C058
:100A000000008BEE93E056DE83E4AEDF89EF93E0E7
:100A1000F1DD2FEF83ED90E3215080409040E1F72E
:100A200000C000008EE092E0E5CD089581E0809363
:100A3000470588E094E03EDE87E194E0DBDD81E07D
:100A4000C6DD85E491DF82E294E034DE4CDF80E5B0
:100A50008BDF85E694E0CECD089588E585DF83E7DA
:100A600094E028DE80EA94E0C5DD80914C0590E0BA
:100A7000CEDD8EE092E0BECD0895CF93DF93CDB76B
:100A8000DEB76E970FB6F894DEBF0FBECDBF1EDE89
:100A900080914805882331F0F89410924805C6DF0C
:100AA0007894F6CF8091470581113AC155DE809345
:100AB00046054AE0BE016F5F7F4F90E055D183E865
:100AC00092E0F8DDCE010196F5DD84E194E0F2DDFF
:100AD00080914C0520914605821718F481E080939F
:100AE0004B0580914C05281303C082E080934B0591
:100AF00080914C05281718F483E080934B05809172
:100B00004C0590E0821B91099C0122F42227332797
:100B1000281B390B20934A0582EA92E0CBDD8091B5
:100B20004C054AE0BE016F5F7F4F90E01DD1CE01C2
:100B30000196C0DD87EB94E0BDDD80914A054AE077
:100B4000BE016F5F7F4F90E00FD184E194E0B2DD92
:100B500080914B05823009F461C0833009F485C06F
:100B6000813009F0F2C02FEF89EF90E021508040F2
:100B70009040E1F700C000008CEC94E09BDD8DE438
:100B8000F3DE88ED94E036DD81E08093490500E0F6
:100B900010E02FC080914805882331F0F89410921E
:100BA000480544DF7894D1C080914C058F5F8093D5
:100BB0004C0581EE94E07EDD80914C054AE0BE015B
:100BC0006F5F7F4F90E0D0D0CE01019673DD84E15E
:100BD00094E070DD80914C0590E019DD2FEF81EEFF
:100BE00094E0215080409040E1F700C000000F5F8A
:100BF0001F4F80914A0590E0081719075CF283E5C2
:100C0000B3DE10924905ECDE2FEF83EC99E0215022
:100C100080409040E1F700C0000097C02FEF89EFBF
:100C200090E0215080409040E1F700C0000083EF49
:100C300094E040DD82E095E0DDDC86E495DE2FEF98
:100C400087E99AE3215080409040E1F700C000001E
:100C50008EE092E0CFDC2FEF83EC99E021508040D2
:100C60009040E1F700C0000070C02FEF89EF90E0E6
:100C7000215080409040E1F700C000008DE095E0F9
:100C800019DD8DE471DE8BE195E0B4DC81E08093C9
:100C9000490500E010E02FC080914805882331F01D
:100CA000F89410924805C2DE78944FC080914C05AC
:100CB000815080934C0581EE94E0FCDC80914C05E2
:100CC0004AE0BE016F5F7F4F90E04ED0CE010196AB
:100CD000F1DC84E194E0EEDC80914C0590E097DC5F
:100CE0002FEF81EE94E0215080409040E1F700C06A
:100CF00000000F5F1F4F80914A0590E00817190709
:100D00005CF283E531DE109249056ADE2FEF83EC59
:100D100099E0215080409040E1F700C0000015C0EC
:100D2000E2DD182F86E295E0C5DC4AE0BE016F5F88
:100D30007F4F812F90E018D0CE010196BBDC84E17B
:100D400094E0B8DC8ADE109247058FE39CE90197B6
:100D5000F1F700C000009CCEEE0FFF1F881F8BBF75
:100D60000790F691E02D1994BB274A3031F499236E
:100D700022F4BDE2909581959F4F01C0BB27FB01F6
:100D80005527AA27880F991FAA1FA41710F0A41B84
:100D900083955051B9F7A05DAA3308F0A95DA193DE
:100DA000009779F7B111B1931192CB0141C20F9322
:100DB0001F93CF93DF93CDB7DEB72E970FB6F8947E
:100DC000DEBF0FBECDBF0E891F8986E08C831A83DC
:100DD00009838FEF9FE79E838D83AE01465E5F4F51
:100DE000688D798DCE01019610D0EF81F885E00FE6
:100DF000F11F10822E960FB6F894DEBF0FBECDBF46
:100E0000DF91CF911F910F9108952F923F924F92B2
:100E10005F926F927F928F929F92AF92BF92CF928A
:100E2000DF92EF92FF920F931F93CF93DF93CDB793
:100E3000DEB72B970FB6F894DEBF0FBECDBF6C01A7
:100E40007B018A01FC0117821682838181FFBFC169
:100E5000CE0101963C01F6019381F70193FD859146
:100E600093FF81917F01882309F4ADC1853239F464
:100E700093FD859193FF81917F01853221F4B60125
:100E800090E0E6D1E8CF912C212C312CFFE1F31535
:100E9000D8F08B3279F038F4803279F08332A1F4D3
:100EA000232D20611DC08D3261F0803369F4232D24
:100EB000216016C0832D8260382EE32DE4603E2E23
:100EC0002AC0F32DF8601DC037FC2DC020ED280F7F
:100ED0002A3040F08E32B9F436FC75C1232D2064DF
:100EE000322E19C036FE06C08AE0989E200D1124CD
:100EF000922E11C0EAE02E9E200D1124222EF32DF9
:100F0000F0623F2E08C08C3621F4832D8068382E85
:100F100002C0883641F4F70193FD859193FF8191DA
:100F20007F018111B3CF982F9F7D9554933028F482
:100F30000C5F1F4F9FE399830DC0833631F08337D9
:100F400071F0833509F055C020C0F8018081898394
:100F50000E5F1F4F88248394912C530112C02801E7
:100F6000F2E04F0E511CF801A080B18036FE03C0A4
:100F7000692D70E002C06FEF7FEFC5014ED14C01CB
:100F80008201F32DFF773F2E15C0280122E0420E8B
:100F9000511CF801A080B18036FE03C0692D70E0BD
:100FA00002C06FEF7FEFC5012DD14C01F32DF0682A
:100FB0003F2E820133FC19C0822D90E088169906DD
:100FC000A0F4B60180E290E043D12A94F5CFF50178
:100FD00037FC859137FE81915F01B60190E038D1F1
:100FE00021102A9421E0821A91088114910479F742
:100FF000E1C0843611F0893639F5F80137FE07C0B3
:1010000060817181828193810C5F1F4F08C0608174
:101010007181072E000C880B990B0E5F1F4FF32D6B
:10102000FF763F2E97FF09C090958095709561954A
:101030007F4F8F4F9F4FF0683F2E2AE030E0A30193
:1010400043D1882E861844C0853731F4232D2F7E56
:10105000B22E2AE030E025C0932D997FB92E8F362D
:10106000C1F018F4883579F0AEC0803719F08837B0
:1010700021F0A9C0E92FE061BE2EB4FE0DC0FB2D0A
:10108000F460BF2E09C034FE0AC0292F2660B22E9C
:1010900006C028E030E005C020E130E002C020E1D9
:1010A00032E0F801B7FE07C06081718182819381CF
:1010B0000C5F1F4F06C06081718180E090E00E5F81
:1010C0001F4FA30101D1882E8618FB2DFF773F2EDD
:1010D00036FE0DC0232D2E7FA22E891458F434FE27
:1010E0000BC032FC09C0832D8E7EA82E05C0B82C03
:1010F000A32C03C0B82C01C0B92CA4FE0FC0FE0164
:10110000E80DF11D8081803321F49A2D997EA92E5E
:1011100009C0A2FE06C0B394B39404C08A2D867899
:1011200009F0B394A3FC10C0A0FE06C0B21480F472
:10113000280C922C9B180DC0B21458F4B60180E212
:1011400090E086D0B394F8CFB21418F42B1802C0F4
:10115000982C212CA4FE0FC0B60180E390E078D03B
:10116000A2FE16C0A1FC03C088E790E002C088E59B
:1011700090E0B6010CC08A2D867851F0A1FE02C025
:101180008BE201C080E2A7FC8DE2B60190E060D066
:10119000891430F4B60180E390E05AD09A94F8CFE5
:1011A0008A94F301E80DF11D8081B60190E050D0E2
:1011B0008110F6CF222009F44ECEB60180E290E0F5
:1011C00047D02A94F7CFF6018681978102C08FEF2E
:1011D0009FEF2B960FB6F894DEBF0FBECDBFDF9109
:1011E000CF911F910F91FF90EF90DF90CF90BF9024
:1011F000AF909F908F907F906F905F904F903F90B7
:101200002F900895FC010590615070400110D8F7AF
:10121000809590958E0F9F1F0895FC01615070403E
:1012200001900110D8F7809590958E0F9F1F08951B
:10123000DC01FC01672F71917723E1F7329704C03D
:101240007C916D9370836291AE17BF07C8F30895C8
:101250000F931F93CF93DF93FB01238121FD03C0E5
:101260008FEF9FEF2CC022FF16C04681578124814B
:1012700035814217530744F4A081B1819D012F5F4E
:101280003F4F318320838C93268137812F5F3F4FDF
:101290003783268314C08B01EC01FB010084F185A8
:1012A000E02D1995892BE1F6D80116968D919C9128
:1012B0001797019617969C938E931697CE01DF9100
:1012C000CF911F910F910895FA01AA27283051F16B
:1012D000203181F1E8946F936E7F6E5F7F4F8F4F67
:1012E0009F4FAF4FB1E03ED0B4E03CD0670F781FC6
:1012F000891F9A1FA11D680F791F8A1F911DA11DAB
:101300006A0F711D811D911DA11D20D009F46894E3
:101310003F912AE0269F11243019305D3193DEF68B
:10132000CF010895462F4770405D4193B3E00FD041
:10133000C9F7F6CF462F4F70405D4A3318F0495D2C
:1013400031FD4052419302D0A9F7EACFB4E0A6950F
:101350009795879577956795BA95C9F70097610531
:10136000710508959B01AC010A2E06945795479587
:1013700037952795BA95C9F7620F731F841F951F7C
:08138000A01D0895F894FFCFB1
:10138800466C6F6F72206E6F773A20256400436851
:101398006F6F73652074686520666C6F6F720045A7
:1013A8006C657661746F72204D617374657220503C
:1013B800726F6772616D202D204E41534120534555
:1013C800525449464945442050524F445543540DC0
:1013D8000A0053656C65637420666C6F6F722062D7
:1013E80065747765656E2030202D2039392E0027E9
:1013F8002A2720636F6E6669726D7320666C6F6F43
:10140800722E0050726573736564206B65793A209B
:1014180000202D2D20004B657920696E6465783A8F
:10142800200043757272656E7420666C6F6F723A35
:101438002000496E7075743A202573005365742036
:10144800666C6F6F723A20004B6579207072657315
:101458007365643A2000476976652070726F70651D
:10146800722076616C7565206265747765656E209B
:1014780030202D203900507265737320616E7920F9
:101488006B657920746F2073746F7020656D657259
:1014980067656E6379206D656C6F64792E0D0A003F
:1014A800545749207374617274206572726F720D9B
:1014B8000A00545749207772697465206572726F03
:1014C800720D0A0053656E64696E6720636F6D6DF7
:1014D800616E643A200054574920737461727465D0
:1014E800640D0A00436F6D6D616E642073656E74E0
:1014F800207375636365737366756C6C790D0A0088
:101508004661696C656420746F2073656E6420633E
:101518006F6D6D616E640D0A00536C617665206EA7
:101528006F7420726573706F6E64696E670D0A0060
:101538005457492073746F707065640D0A005457CE
:1015480049207374617274206661696C65640D0A60
:1015580000446F6F72206F70656E210D0A00446F32
:101568006F72206973206F70656E00446F6F722010
:10157800636C6F7365210D0A00446F6F7220697385
:1015880020636C6F73656400456D657267656E6393
:10159800792121210D0A00454D455247454E4359B1
:1015A8002100507265737320616E79206B65792014
:1015B8006F6E206B657970616420746F206F706541
:1015C8006E20646F6F7220616E6420737461727430
:1015D80020656D657267656E6379206D656C6F64F3
:1015E800792E0D0A00446F6F72206973206F706541
:1015F8006E2100456D657267656E6379206D656C57
:101608006F64792073746F707065642E20446F6FF7
:10161800722077696C6C20636C6F73652E0D0A00FD
:10162800454D455247454E4359202D204D656C6F19
:101638006479204F4646002C20466C6F6F727320E9
:10164800746F2074726176656C3A2000476F696E1A
:1016580067207570210D0A00476F696E67207570E5
:10166800004D6F76696E6720746F20666C6F6F72BD
:101678003A20004661756C742073746174652E0D90
:101688000A0053616D6520466C6F6F7200476F6981
:101698006E6720646F776E210D0A00476F696E6769
:1016A80020646F776E004B6579207072657373657F
:1016B8006420647572696E6720656D657267656E12
:0616C80063793A200000E6
:00000001FF
